:040000000DEF00F010
:0400080072EF86F01D
:06001800FF00CDEF87F0B0
:10FEF400004661696C2047656E65726174652043D4
:10FF04006861720046696E67657220446574656352
:10FF1400746564005061737320436865636B2046A5
:10FF240061696C005573657220446574656374651A
:10FF3400643A0048616E645368616B652046616988
:10FF44006C00566572696679696E672050617373D7
:10FF54000044656C6574656420557365723A0046A7
:10FF640061696C20746F2053746F72650046616917
:10FF74006C65642044656C65746500416374696FE5
:10FF84006E2043616E63656C004661696C20746F1A
:10FF9400204D6F64656C00566572696679205365FF
:10FFA4006E736F720044656C657465205573657279
:10FFB4003A0050726573732044656C657465005033
:10FFC4006C6163652046696E67657200554E4C4FDF
:10FFD400434B45443A004661696C656420496400BA
:10FFE400436865636B696E67004E6577205573657A
:0BFFF4007200537563636573730000B7
:020000040001F9
:100000003EEC89F0180E256E120E266E010E276E3C
:1000100050EC89F0BB98FFEC88F0460E396EFF0E6D
:100020003A6E010E3B6E000E3C6EB4EC83F0AEEC0B
:1000300086F00009D8B41FEF80F021EF80F096EF32
:1000400082F0FFEC88F09B0E396EFF0E3A6E010EC7
:100050003B6E000E3C6EB4EC83F05CEC87F0000964
:10006000D8B435EF80F037EF80F07CEF82F0FFEC12
:1000700088F0C30E396EFF0E3A6E010E3B6E000E15
:100080003C6EB4EC83F0CBA048EF80F04AEF80F0F8
:1000900036EF81F0FFEC88F0ED0E396EFF0E3A6E10
:1000A000010E3B6E000E3C6EB4EC83F06EEF80F000
:1000B000C30E396EFF0E3A6E020E3B6E000E3C6EA2
:1000C000B4EC83F0BFEC88F00009D8B46AEF80F09C
:1000D0006CEF80F06EEF80F078EF80F036EC88F017
:1000E0000009D8B476EF80F078EF80F058EF80F018
:1000F000BFEC88F00009D8B480EF80F082EF80F088
:1001000084EF80F036EF81F0FFEC88F0F60E396E68
:10011000FF0E3A6E010E3B6E000E3C6EB4EC83F0A7
:10012000A8EF80F0C30E396EFF0E3A6E020E3B6EE2
:10013000000E3C6EB4EC83F0BFEC88F00009D8B43C
:10014000A4EF80F0A6EF80F0A8EF80F0B2EF80F08F
:1001500036EC88F00009D8B4B0EF80F0B2EF80F050
:1001600092EF80F0BFEC88F00009D8B4BAEF80F0CD
:10017000BCEF80F0BEEF80F036EF81F0FFEC88F04E
:10018000F60E396EFF0E3A6E010E3B6E000E3C6E9F
:10019000B4EC83F022EC87F00009D8B4D2EF80F001
:1001A000D4EF80F02AEF81F04E2A502A22EC87F01B
:1001B0000009D8B4DEEF80F0E0EF80F01CEF81F0B2
:1001C0004E06500695EC87F00009D8B4EAEF80F0AF
:1001D000ECEF80F00EEF81F0510E2324D96EDA6A35
:1001E000000EDA22DF50F2EC85F00009D8B4FBEF04
:1001F00080F0FDEF80F000EF81F0232A36EF81F0F0
:10020000FFEC88F0630E396EFF0E3A6E010E3B6E06
:10021000000E3C6EB4EC83F036EF81F0FFEC88F01A
:100220008D0E396EFF0E3A6E010E3B6E000E3C6E67
:10023000B4EC83F036EF81F0FFEC88F0F50E396E08
:10024000FE0E3A6E010E3B6E000E3C6EB4EC83F077
:1002500036EF81F0FFEC88F0F50E396EFE0E3A6E47
:10026000010E3B6E000E3C6EB4EC83F0CBA23BEF74
:1002700081F03DEF81F0F3EF81F023C043F0FFEC1C
:1002800088F0A90E396EFF0E3A6E010E3B6E010E1C
:100290003C6EB4EC83F0010E396E0F0E3A6E435093
:1002A00032EC89F0B60E396EFF0E3A6E020E3B6EDE
:1002B000000E3C6EB4EC83F0520E426E2B0E416E7B
:1002C000000EE82EFED7412EFCD7422EFAD700D0E2
:1002D000BFEC88F00009D8B470EF81F072EF81F0C4
:1002E00074EF81F0F3EF81F0CBA479EF81F07BEF35
:1002F00081F09AEF81F0432A4350235CD8B083EF1A
:1003000081F085EF81F087EF81F0010E436E010EE1
:10031000396E0F0E3A6E435032EC89F0150E426E74
:100320004B0E416EBE0EE82EFED7412EFCD7422E5C
:10033000FAD700D0CBA69FEF81F0A1EF81F0C0EFFC
:1003400081F043064350235CD8B0A9EF81F0ABEFB6
:1003500081F0ADEF81F023C043F0010E396E0F0E36
:100360003A6E435032EC89F0150E426E4B0E416EE0
:10037000BE0EE82EFED7412EFCD7422EFAD700D073
:10038000CBA2C5EF81F0C7EF81F068EF81F0435059
:1003900032EC86F00009D8B4D0EF81F0D2EF81F0D2
:1003A000E7EF81F0FFEC88F0550E396EFF0E3A6EE4
:1003B000010E3B6E010E3C6EB4EC83F0010E396E03
:1003C0000F0E3A6E435032EC89F0F3EF81F0FFEC00
:1003D00088F0710E396EFF0E3A6E010E3B6E000E04
:1003E0003C6EB4EC83F036EC88F00009D8A4FBEF47
:1003F00081F0FDEF81F00BEF80F0FFEC88F0080E4C
:10040000396EFF0E3A6E010E3B6E000E3C6EB4EC80
:1004100083F0E40E396EFF0E3A6E010E3B6E000E55
:100420003C6EB4EC83F022EC87F00009D8B41BEFEB
:1004300082F01DEF82F06EEF82F0E8EC86F00009AA
:10044000D8B425EF82F027EF82F060EF82F0FFEC66
:1004500088F0280E396EFF0E3A6E010E3B6E000ECC
:100460003C6EB4EC83F0010E396E0F0E3A6E0C50F8
:1004700032EC89F0D00E396EFF0E3A6E020E3B6EF2
:10048000000E3C6EB4EC83F0BB88A30E426E570E98
:10049000416E020EE82EFED7412EFCD7422EFAD72F
:1004A00000D0A30E426E570E416E020EE82EFED70C
:1004B000412EFCD7422EFAD700D0BB98A4EF82F091
:1004C000FFEC88F0DA0E396EFF0E3A6E010E3B6ECD
:1004D000000E3C6EB4EC83F0A4EF82F0FFEC88F0E9
:1004E000DA0E396EFF0E3A6E010E3B6E000E3C6E58
:1004F000B4EC83F0A4EF82F0FFEC88F0370E396E95
:10050000FF0E3A6E010E3B6E000E3C6EB4EC83F0B3
:10051000A30E426E570E416E020EE82EFED7412EFC
:10052000FCD7422EFAD700D00BEF80F0FFEC88F01A
:10053000180E396EFF0E3A6E010E3B6E000E3C6EC9
:10054000B4EC83F088EF82F00DEF00F02F6E2FB047
:10055000ACEF82F0AEEF82F0C2EF82F060006FF19C
:10056000D9FF600073F1DAFF6F0078FF25F06F00AC
:1005700074FF26F0EF0E2514276EFF0E2614286E4A
:10058000D3EF82F0100E60006FF1D9FF600073F1BD
:10059000DAFF6F0078FF25F06F0074FF26F025105A
:1005A000276E2650286E60006FF1D9FF600073F14E
:1005B000DAFF60009FF0DEFF6000A3F0DDFF2FC0D8
:1005C00025F0D890253225B0E8EF82F0EAEF82F0EE
:1005D000FEEF82F060006FF1D9FF600073F1DAFF87
:1005E0006F0078FF25F06F0074FF26F0DF0E2514F2
:1005F000296EFF0E26142A6E0FEF83F0200E600086
:100600006FF1D9FF600073F1DAFF6F0078FF25F01A
:100610006F0074FF26F02510296E26502A6E6000A8
:100620006FF1D9FF600073F1DAFF6000A7F0DEFF21
:100630006000ABF0DDFF2FC025F0D8902532D890B8
:10064000253225B026EF83F028EF83F03CEF83F0CE
:1006500060006FF1D9FF600073F1DAFF6F0078FF7F
:1006600025F06F0074FF26F0BF0E25142B6EFF0ED1
:1006700026142C6E4DEF83F0400E60006FF1D9FF11
:10068000600073F1DAFF6F0078FF25F06F0074FFF0
:1006900026F025102B6E26502C6E60006FF1D9FFCE
:1006A000600073F1DAFF6000AFF0DEFF6000B3F0CE
:1006B000DDFF2FC025F0D8902532D8902532D89074
:1006C000253225B066EF83F068EF83F07CEF83F08E
:1006D00060006FF1D9FF600073F1DAFF6F0078FFFF
:1006E00025F06F0074FF26F07F0E25142D6EFF0E8F
:1006F00026142E6E8DEF83F0800E60006FF1D9FF0F
:10070000600073F1DAFF6F0078FF25F06F0074FF6F
:1007100026F025102D6E26502E6E60006FF1D9FF49
:10072000600073F1DAFF6000B7F0DEFF6000BBF03D
:10073000DDFF60006FF1D9FF600073F1DAFF000E9A
:10074000DB86050EE82EFED700F060006FF1D9FFC2
:10075000600073F1DAFFF70EDE16FF0EDD16A00E55
:1007600000D0E82EFDD712003C50D8A4BAEF83F099
:10077000BCEF83F0F7EF83F0000E3F6E3F5039245B
:100780003D6E000E3A203E6E6000F7F0F6FF60000E
:10079000FBF0F7FF000EF86E0800F5500009D8A432
:1007A000D4EF83F0D6EF83F0D8EF83F0E2EF83F05D
:1007B0003F2A3C2A100E3F64E0EF83F0E2EF83F023
:1007C000BEEF83F03BC036F03C501208256E000EA1
:1007D000D8A0E82A0008266E000E286E020E276EAA
:1007E0009AEC84F02550A6EC88F0FCEF83F03BC037
:1007F00036F03C50A6EC88F0000E406E4050392494
:100800003D6E000E3A203E6E6000F7F0F6FF60008D
:10081000FBF0F7FF000EF86E0800F5500009D8A4B1
:1008200014EF84F016EF84F018EF84F036EF84F0C4
:10083000405039243D6E000E3A203E6E6000F7F0C5
:10084000F6FF6000FBF0F7FF000EF86E08006F0087
:10085000D4FF30F0010EA5EC85F0402A100E406464
:1008600034EF84F036EF84F0FEEF83F01200150EC3
:100870002024D96EDA6A000EDA22000EDF6E3D0106
:10088000F9A745EF84F047EF84F05CEF84F0150E94
:100890002024D96EDA6A000EDA22DF8202D85CEFF9
:1008A00084F00500FA6E0001D951FD6EDA51FE6E3A
:1008B000DB51FF6EFA5012003D01F9A362EF84F0A4
:1008C00064EF84F079EF84F0150E2024D96EDA6A93
:1008D000000EDA22DF8402D879EF84F00500FA6E88
:1008E0000001D651FD6ED751FE6ED851FF6EFA5001
:1008F0001200150E2024D96EDA6A000EDA22DF50BB
:10090000D8B485EF84F087EF84F097EF84F002D8B5
:1009100095EF84F00500FA6E0001D351FD6ED451BD
:10092000FE6ED551FF6EFA50120099EF84F0D7ECAD
:1009300088F01200000E2A6E28BEA3EF84F0A1EF0B
:1009400084F0A9EF84F0276C281ED8B0282A010E65
:100950002A6E26BEB0EF84F0AEEF84F0B6EF84F0DE
:10096000256C261ED8B0262A010E2A1A000E2C6EDF
:10097000000E2B6E27502810D8B4C1EF84F0C3EFBF
:1009800084F0EBEF84F0010E296ECBEF84F0D89069
:1009900027362836292A28AED0EF84F0D2EF84F00B
:1009A000C7EF84F0D8902B362C362750255C285082
:1009B0002658D8A0DEEF84F0E0EF84F0E5EF84F075
:1009C0002750255E2850265A2B80D890283227326F
:1009D000292ED2EF84F02A50D8B4F1EF84F0F3EF4F
:1009E00084F0F7EF84F02B6C2C1ED8B02C2A2BC08F
:1009F00025F02CC026F01200390193976E0E256E5B
:100A0000080E266E010E276E50EC89F0390193997D
:100A1000CA0E256E100E266E010E276E49EC89F067
:100A2000000E3D01EC6F000EED6F000EEE6F000E3C
:100A3000EF6F000EF06F000EF16FB00EF26F800ED0
:100A4000F36F000EF46F150EF56F010EF66F000ECA
:100A5000F76F000EF86F000EF96F000EFA6FE40EDC
:100A6000256E120E266E010E276E5EEC89F0E20EE8
:100A7000256E120E266E010E276E57EC89F0D80EE9
:100A8000256E120E266E010E276E65EC89F0000EA3
:100A90001D6E000E226E000E216E080E5D6E000EA1
:100AA000206E000E1F6E000E1E6E3901938712001D
:100AB000000EBE6E000EBD6E000EBA6E000EBB6E56
:100AC000000EBC6E070EC66EFC0EC26EEF0EC36E3D
:100AD000C468010EC56E010E3A01706F3F0E606F63
:100AE000A00E506F070E806FF40E406F000E716FF6
:100AF000000E816F000E516F000E416F000E616F8E
:100B0000000E5A6F000E5B6F000E6A6F000E6B6F67
:100B1000000E7A6F000E7B6F000E826F000E426F28
:100B2000000E526F000E626F000E726F43695369C0
:100B300063697369070E836F4469546964697469F2
:100B40000F0E846F170EE56F1200336E3350D8A46A
:100B5000ACEF85F0AEEF85F0C2EF85F060006FF18D
:100B6000D9FF600073F1DAFF6F0078FF31F06F009A
:100B700074FF32F0FB0E3114346EFF0E3214356EFA
:100B8000D3EF85F0040E60006FF1D9FF600073F1C0
:100B9000DAFF6F0078FF31F06F0074FF32F0311030
:100BA000346E3250356E60006FF1D9FF600073F122
:100BB000DAFF6000D3F0DEFF6000D7F0DDFF6000F9
:100BC0006FF1D9FF600073F1DAFFFD0EDE16FF0E44
:100BD000DD1630380F0BA6EC82F030500F0BA6EC70
:100BE00082F01200296E87EC88F0010E0A6E29C08F
:100BF0009CF0295000019E27000E2B6E000E2A6EDD
:100C0000910E2A24D96E000E2B20DA6EDF503D01A2
:100C1000EA6F2A4A2B2A2BBE17EF86F02B5009E1E8
:100C20000E0E2A5CD8A017EF86F019EF86F000EFC1
:100C300086F0520E286E2B0E276E000EE82EFED781
:100C4000272EFCD7282EFAD700D00A50D8A42BEF95
:100C500086F02DEF86F030EF86F0010E31EF86F052
:100C6000000E1200296E87EC88F0010E0A6E29C072
:100C70007CF0295000018027000E2B6E000E2A6E9A
:100C8000710E2A24D96E000E2B20DA6EDF503D0142
:100C9000EA6F2A4A2B2A2BBE57EF86F02B5009E128
:100CA000100E2A5CD8A057EF86F059EF86F040EF7F
:100CB00086F0520E286E2B0E276E000EE82EFED701
:100CC000272EFCD7282EFAD700D00A50D8A46BEFD5
:100CD00086F06DEF86F070EF86F0010E71EF86F012
:100CE000000E1200390193A978EF86F07AEF86F0B2
:100CF00091EF86F0A3A97FEF86F081EF86F091EF68
:100D000086F002D88FEF86F00500FA6E0001DC5104
:100D1000FD6EDD51FE6EDE51FF6EFA501200ADEF3A
:100D200086F093A796EF86F098EF86F0ADEF86F009
:100D3000A3A79DEF86F09FEF86F0ADEF86F002D877
:100D4000ADEF86F00500FA6E0001DF51FD6EE05157
:100D5000FE6EE151FF6EFA501200110087EC88F030
:100D6000010E0A6E000E2A6E000E296E810E2924D5
:100D7000D96E000E2A20DA6EDF503D01EA6F294A53
:100D80002A2A2ABECDEF86F02A5009E1100E295CEE
:100D9000D8A0CDEF86F0CFEF86F0B6EF86F0520EFA
:100DA000286E2B0E276E000EE82EFED7272EFCD7BE
:100DB000282EFAD700D00A50D8A4E1EF86F0E3EF4E
:100DC00086F0E6EF86F0010EE7EF86F0000E1200E7
:100DD00087EC88F0010E0A6E000E2A6E000E296E56
:100DE000600E2924D96E000E2A20DA6EDF503D01F4
:100DF000EA6F294A2A2A2ABE07EF87F02A5009E11A
:100E0000110E295CD8A007EF87F009EF87F0F0EF0B
:100E100086F0520E286E2B0E276E000EE82EFED79F
:100E2000272EFCD7282EFAD700D00A50D8A41BEFC3
:100E300087F01DEF87F020EF87F00C5021EF87F04F
:100E4000000E120087EC88F0010E0A6E000E2A6E6A
:100E5000000E296E440E2924D96E000E2A20DA6E67
:100E6000DF503D01EA6F294A2A2A2ABE41EF87F066
:100E70002A5009E10D0E295CD8A041EF87F043EF1D
:100E800087F02AEF87F0520E286E2B0E276E000E89
:100E9000E82EFED7272EFCD7282EFAD700D00A50EE
:100EA000D8A455EF87F057EF87F05AEF87F0010E7F
:100EB0005BEF87F0000E120087EC88F0000E2A6EC0
:100EC000000E296EB70E2924D96E000E2A20DA6E84
:100ED000DF503D01EA6F294A2A2A2ABE79EF87F0BE
:100EE0002A5009E10C0E295CD8A079EF87F07BEF3E
:100EF00087F062EF87F0520E286E2B0E276E000EE1
:100F0000E82EFED7272EFCD7282EFAD700D0550E74
:100F10000A18D8A48EEF87F090EF87F093EF87F050
:100F2000010E94EF87F0000E120087EC88F0000E9F
:100F30002A6E000E296E9F0E2924D96E000E2A20DB
:100F4000DA6EDF503D01EA6F294A2A2A2ABEB2EF43
:100F500087F02A5009E10C0E295CD8A0B2EF87F087
:100F6000B4EF87F09BEF87F0520E286E2B0E276EA2
:100F7000000EE82EFED7272EFCD7282EFAD700D059
:100F80000A50D8A4C6EF87F0C8EF87F0CBEF87F000
:100F9000010ECCEF87F0000E1200080EF66E100E58
:100FA000F76E010EF86E00EE60F010EE63F00900CF
:100FB0006F00D7FFEEFFE550E150F9E1320EF66E1B
:100FC000120EF76E010EF86E00EE44F010EE19F0FE
:100FD00009006F00D7FFEEFFE550E150F9E100EEA8
:100FE000C3F0100EEE6AE806FDE100EE01F0240EFB
:100FF000EE6AE806FDE1080ED56E000ED66E000E14
:10100000D76E000100EF80F0EF01FFFFFFFF01004E
:10101000090401000000050020EF01FFFFFFFF01B0
:1010200000070C000000010015EF01FFFFFFFF01AA
:1010300000071300000000001BEF01FFFFFFFF018E
:1010400000060601000014EF01FFFFFFFF0100038F
:10105000050009EF01FFFFFFFF010003010005EF9D
:0B10600001FFFFFFFF010003530057DA
:10106C0087EC88F0010E0A6E000E2A6E000E296EB7
:10107C00AB0E2924D96E000E2A20DA6EDF503D010A
:10108C00EA6F294A2A2A2ABE55EF88F02A5009E12C
:10109C000C0E295CD8A055EF88F057EF88F03EEF86
:1010AC0088F0520E286E2B0E276E000EE82EFED7FF
:1010BC00272EFCD7282EFAD700D00A501200080E83
:1010CC005D606BEF88F06DEF88F084EF88F0CB0EED
:1010DC002124D96EDA6A000EDA22DF503D01EA6F64
:1010EC00212A070E21647DEF88F07FEF88F081EFD5
:1010FC0088F0000E216E5D2A86EF88F039019399F5
:10110C001200000E246E000E266E000E256E010ECF
:10111C002524D96E000E2620DA6E000EDF6E254ACD
:10112C00262A26BEA3EF88F0265009E1140E255C72
:10113C00D8A0A3EF88F0A5EF88F08DEF88F012000F
:10114C00376E020E3618D8A4AEEF88F0B0EF88F0E8
:10115C00B4EF88F0400E386EB6EF88F0000E386EA3
:10116C003704382638508009306E000EA5EC85F017
:10117C001200CAA6C4EF88F0C6EF88F0D5EF88F04D
:10118C00FFEC88F07F0E396EFF0E3A6E010E3B6E4F
:10119C00000E3C6EB4EC83F0010ED6EF88F0000E1E
:1011AC001200C30E2024D96EDA6A000EDA226F0008
:1011BC00A3F7DFFF202A070E2064E7EF88F0E9EFA2
:1011CC0088F0EBEF88F0000E206E1E2A1200000E45
:1011DC003901C06F000EC16F000EC26F000EC36FDD
:1011EC00000EC46F000EC56F000EC66F000EC76FE9
:1011FC001200010E306E000EA5EC85F02A0E366E34
:10120C008E0EE82EFED7362EFCD71200010E2424AB
:10121C00D96EDA6A000EDA226F00A3F7DFFF242AF8
:10122C003901A3971200EF01FFFFFFFF0100040239
:0F123C000100080102030405C53F100C07CD3F58
:10124C00600E3901D96F000EDB6F000EDD6F080EDA
:10125C00DF6F000EDE6F12003B6E39C036F03A5075
:10126C00A6EC88F03BC030F0010EA5EC85F0120026
:10127C006FEC89F0EDEC88F058EC85F026EC89F0F9
:10128C00FCEC84F0120025C0DCF026C0DDF027C099
:10129C00DEF0120025C0DFF026C0E0F027C0E1F040
:1012AC00120025C0D6F026C0D7F027C0D8F0120007
:1012BC0025C0D9F026C0DAF027C0DBF0120025C01B
:1012CC00D3F026C0D4F027C0D5F01200D7EC88F0AC
:0A12DC001200D29A12001200120054
:020000040020DA
:10000000FF0FFF0FFF0FFF0FFF0FFF0FFF0FFF0F80
:020000040030CA
:0A0000008CFFF7FF9FFFFFFFFFFFDB
:00000001FF
